:100000000C942A000C94740D0C949D0D0C94C60D48
:100010000C9447000C9447000C9447000C94470044
:100020000C9447000C9447000C9447000C94470034
:100030000C9447000C9447000C9447000C94470024
:100040000C9447000C9447000C9447000C94470014
:100050000C94470011241FBECFE5D8E0DEBFCDBF12
:1000600011E0A0E6B0E0EEE2F3E202C005900D92EE
:10007000A03CB107D9F711E0A0ECB1E001C01D929E
:10008000A73CB107E1F70E9440100C9495110C9425
:100090000000EF92FF920F931F937B018C0120E0F1
:1000A00030E040E05FE40E94490388238CF0C801FF
:1000B000B70120E030E040E05FE40E94C1010E940F
:1000C000A9039B01AC01205030404040504806C07D
:1000D000C801B7010E94A9039B01AC01B901CA0183
:1000E0001F910F91FF90EF900895A0E0B0E0EBE733
:1000F000F0E00C94DE10DC012B01FA019C919230AF
:1001000008F439C1EB018881823008F433C194309E
:1001100069F4843009F02FC111969C91119789815F
:10012000981709F428C1ABE8B0E025C1843009F480
:1001300021C18230A9F4923009F01DC19A01AD01AC
:1001400088E0EA010990AE01E90109929E0181501F
:10015000C1F7E201898111969C918923818308C1AD
:10016000923009F407C112962D903C901397EB0141
:100170008A819B811496AD90BD90CD90DC901797AD
:10018000EC80FD800E811F819101281B390BB90184
:1001900037FF04C066277727621B730B6032710537
:1001A0000CF061C0121613066CF537014801062EDB
:1001B00004C096948794779467940A94D2F721E0C8
:1001C00030E040E050E004C0220F331F441F551FB1
:1001D0006A95D2F721503040404050402E213F21B7
:1001E00040235123211531054105510521F021E01E
:1001F00030E040E050E079018A01E628F72808293C
:1002000019293CC0232BD1F1260E371E350146019A
:10021000062E04C096948794779467940A94D2F734
:1002200021E030E040E050E004C0220F331F441FC3
:10023000551F6A95D2F721503040404050402A2146
:100240003B214C215D21211531054105510521F04E
:1002500021E030E040E050E059016A01A628B728CB
:10026000C828D9280BC0821593052CF01C01AA249C
:10027000BB24650103C0EE24FF24870111969C91E5
:10028000D20111968C91981709F445C0992339F041
:10029000A80197012A193B094C095D0906C0A6016E
:1002A00095012E193F09400B510B57FD08C01182D3
:1002B0003382228224833583468357831DC081E0A5
:1002C00081833382228288279927DC01821B930B4A
:1002D000A40BB50B84839583A683B7830DC0220F2F
:1002E000331F441F551F24833583468357838281E0
:1002F000938101979383828324813581468157813D
:10030000DA01C9010197A109B1098F5F9F4FAF4F72
:10031000BF4328F30BC0918333822282EA0CFB1C7B
:100320000C1D1D1DE482F5820683178383E0808304
:10033000248135814681578157FF1AC0C901AA27F8
:1003400097FDA095BA2F81709070A070B0705695EF
:10035000479537952795822B932BA42BB52B848318
:100360009583A683B7838281938101969383828349
:10037000DF0101C0D201CD01CDB7DEB7E2E10C94BF
:10038000FA10A0E2B0E0E7ECF1E00C94EA10698327
:100390007A838B839C832D833E834F835887E9E048
:1003A000EE2EF12CEC0EFD1ECE010196B7010E943F
:1003B0009A058E010F5E1F4FCE010596B8010E946F
:1003C0009A058A8991E089278A8BC701B801AE0115
:1003D000475E5F4F0E9475000E94C504A096E6E04C
:1003E0000C940611A0E2B0E0E8EFF1E00C94EA1002
:1003F00069837A838B839C832D833E834F835887C5
:10040000F9E0EF2EF12CEC0EFD1ECE010196B701A6
:100410000E949A058E010F5E1F4FCE010596B8010E
:100420000E949A05C701B801AE01475E5F4F0E9466
:1004300075000E94C504A096E6E00C940611A0E2A7
:10044000B0E0E5E2F2E00C94DE1069837A838B83FE
:100450009C832D833E834F835887CE010196BE0136
:10046000675F7F4F0E949A05CE010596BE016F5EC1
:100470007F4F0E949A059985923088F08989823051
:10048000C8F0943019F4823051F404C0843029F457
:10049000923081F48BE890E0C6C0923049F420E0BD
:1004A0009A858A89981321E02A87CE010996BBC0D4
:1004B000823049F420E09A858A89981321E02A8BBA
:1004C000CE014196B0C02D843E844F8458886D88FB
:1004D0007E888F88988CEE24FF248701AA24BB2471
:1004E000650140E050E060E070E0E0E0F0E0C10174
:1004F00081709070892BE9F0E60CF71C081D191D1E
:100500009A01AB012A0D3B1D4C1D5D1D80E090E062
:10051000A0E0B0E0E614F7040805190520F481E036
:1005200090E0A0E0B0E0BA01A901480F591F6A1F8E
:100530007B1FAA0CBB1CCC1CDD1C97FE08C081E0F5
:1005400090E0A0E0B0E0A82AB92ACA2ADB2A3196B6
:10055000E032F10549F0660C771C881C991C569412
:10056000479437942794C3CFFA85EA892B893C892D
:100570008B859C85280F391F2E5F3F4F17C0CA01FE
:1005800081709070892B61F016950795F794E79428
:1005900080E090E0A0E0B0E8E82AF92A0A2B1B2BC3
:1005A00076956795579547952F5F3F4F77FDE7CF36
:1005B0000CC0440F551F661F771F17FD4160EE0CDE
:1005C000FF1C001F111F21503040403090E05907A0
:1005D00090E0690790E4790760F32B8F3C8FDB0193
:1005E000CA018F779070A070B07080349105A1051A
:1005F000B10561F447FD0AC0E114F10401051105DC
:1006000029F0405C5F4F6F4F7F4F40781A8EFE1786
:1006100011F081E08A8F4D8F5E8F6F8F78A383E01A
:10062000898FCE0149960E94C504A096E2E10C9400
:10063000FA10A8E1B0E0EFE1F3E00C94EA1069836E
:100640007A838B839C832D833E834F83588789E0F5
:10065000E82EF12CEC0EFD1ECE010196B7010E9492
:100660009A058E010F5E1F4FCE010596B8010E94BC
:100670009A058985823040F08989823028F0C70147
:10068000B8010E94120601C08FEF6896E6E00C9454
:100690000611A8E1B0E0EFE4F3E00C94EA106983FE
:1006A0007A838B839C832D833E834F83588789E095
:1006B000E82EF12CEC0EFD1ECE010196B7010E9432
:1006C0009A058E010F5E1F4FCE010596B8010E945C
:1006D0009A058985823040F08989823028F0C701E7
:1006E000B8010E94120601C08FEF6896E6E00C94F4
:1006F0000611A8E1B0E0EFE7F3E00C94EA1069839B
:100700007A838B839C832D833E834F83588789E034
:10071000E82EF12CEC0EFD1ECE010196B7010E94D1
:100720009A058E010F5E1F4FCE010596B8010E94FB
:100730009A058985823040F08989823028F0C70186
:10074000B8010E94120601C081E06896E6E00C94B0
:100750000611ACE0B0E0EFEAF3E00C94EE10698330
:100760007A838B839C83CE010196BE016B5F7F4FA2
:100770000E949A058D81823061F1823050F184307F
:1007800021F48E81882351F12EC02F81388537FDC9
:1007900020C06E812F3131051CF06623F9F023C093
:1007A0008EE190E0821B930B29853A854B855C8511
:1007B00004C056954795379527958A95D2F76623B5
:1007C000B1F050954095309521953F4F4F4F5F4F79
:1007D0000EC020E030E040E050E009C02FEF3FEFD6
:1007E0004FEF5FE704C020E030E040E050E8B9019F
:1007F000CA012C96E2E00C940A11A8E0B0E0E3E014
:10080000F4E00C94E6107B018C0161157105810503
:10081000910519F482E0898360C083E089838EE1C9
:10082000C82ED12CDC82CB82ED82FE820F8318870A
:10083000C801B7010E947604FC013197F7FF3BC065
:10084000222733272E1B3F0B57016801022E04C0BD
:10085000D694C794B794A7940A94D2F740E050E096
:1008600060E070E081E090E0A0E0B0E004C0880FBC
:10087000991FAA1FBB1F2A95D2F70197A109B10999
:100880008E219F21A023B1230097A105B10521F05E
:1008900041E050E060E070E04A295B296C297D2945
:1008A0004D835E836F8378878EE190E08E1B9F0B74
:1008B0009C838B8312C0309781F00E2E04C0EE0C07
:1008C000FF1C001F111F0A94D2F7ED82FE820F83D6
:1008D0001887CE1ADF0ADC82CB821A82CE010196FB
:1008E0000E94C5042896EAE00C940211EF92FF9250
:1008F0000F931F937B018C0180E0E81680E0F806DF
:1009000081E0080780E0180788F48FEFE816F1040B
:100910000105110531F028F088E090E0A0E0B0E09A
:1009200017C080E090E0A0E0B0E012C080E0E816E0
:1009300080E0F80680E0080781E0180728F088E1E9
:1009400090E0A0E0B0E004C080E190E0A0E0B0E082
:1009500020E230E040E050E0281B390B4A0B5B0BF3
:1009600004C016950795F794E7948A95D2F7F70196
:10097000ED56FF4F8081281B310941095109C901FA
:100980001F910F91FF90EF900895DF92EF92FF92E9
:100990000F931F93FC01E480F58006811781D180BD
:1009A0008081823048F480E090E0A0E1B0E0E82A65
:1009B000F92A0A2B1B2BA5C0843009F49FC0823072
:1009C00021F4EE24FF24870105C0E114F1040105A0
:1009D000110519F4E0E0F0E096C0628173819FEFA9
:1009E000623879070CF05BC022E83FEF261B370B1B
:1009F0002A3131052CF020E030E040E050E02AC000
:100A0000B801A701022E04C07695679557954795C2
:100A10000A94D2F781E090E0A0E0B0E004C0880F33
:100A2000991FAA1FBB1F2A95D2F70197A109B109E7
:100A30008E219F21A023B1230097A105B10521F0AC
:100A400081E090E0A0E0B0E09A01AB01282B392BC7
:100A50004A2B5B2BDA01C9018F779070A070B070C0
:100A600080349105A105B10539F427FF09C0205C48
:100A70003F4F4F4F5F4F04C0215C3F4F4F4F5F4F81
:100A8000E0E0F0E02030A0E03A07A0E04A07A0E470
:100A90005A0710F0E1E0F0E079018A0127C06038E0
:100AA000710564F5FB01E158FF4FD801C7018F774D
:100AB0009070A070B07080349105A105B10539F433
:100AC000E7FE0DC080E490E0A0E0B0E004C08FE35A
:100AD00090E0A0E0B0E0E80EF91E0A1F1B1F17FF10
:100AE00005C016950795F794E794319687E016951B
:100AF0000795F794E7948A95D1F705C0EE24FF2473
:100B00008701EFEFF0E06E2F679566276795902FCE
:100B10009F77D794DD24D7948E2F8695492F462B27
:100B2000582F5D29B701CA011F910F91FF90EF90D7
:100B3000DF900895FC01DB01408151812281622F09
:100B40006F7770E0221F2227221F9381892F880F41
:100B5000822B282F30E0991F9927991F11969C937B
:100B6000119721153105A9F541155105610571054B
:100B700011F482E037C082E89FEF13969C938E9326
:100B800012979A01AB0167E0220F331F441F551FD4
:100B90006A95D1F783E08C930DC0220F331F441F59
:100BA000551F12968D919C911397019713969C93C4
:100BB0008E931297203080E0380780E0480780E469
:100BC000580758F314962D933D934D935C931797C4
:100BD00008952F3F310579F44115510561057105DF
:100BE00019F484E08C93089564FF03C081E08C9332
:100BF00012C01C9210C02F57304013963C932E9376
:100C0000129783E08C9387E0440F551F661F771F70
:100C10008A95D1F7706414964D935D936D937C9390
:100C2000179708951F93DC01FB019C91923008F403
:100C300047C08081823008F443C0943051F411964B
:100C40001C91843099F58181682F70E0611B7109D6
:100C50003FC0843021F0923031F48230B9F181818B
:100C6000882389F12DC011961C9111978230F1F0E3
:100C700081811817D9F412962D913C911397828196
:100C800093818217930794F028173907BCF01496C4
:100C90008D919D910D90BC91A02D2481358146812F
:100CA0005781281739074A075B0718F4112341F0C9
:100CB0000AC082179307A407B50740F4112319F05F
:100CC00061E070E005C06FEF7FEF02C060E070E0B0
:100CD000CB011F9108951F93CF93DF93882341F594
:100CE00010E0C0E9D1E081E00E94030D88EE93E0BE
:100CF000FE013197F1F70197D9F780E060E00E949B
:100D0000400D80E690E00E949B0C80E061E00E9434
:100D1000400D80E790E00E949B0C88EE93E0FE017E
:100D20003197F1F70197D9F71F5F1530E1F627C02A
:100D300010E0C0E9D1E081E00E94030D88EE93E06D
:100D4000FE013197F1F70197D9F780E060E00E944A
:100D5000400D80E690E00E949B0C80E061E00E94E4
:100D6000400D8EE790E00E949B0C88EE93E0FE0120
:100D70003197F1F70197D9F71F5F1530E1F6DF9151
:100D8000CF911F910895FF920F931F93CF93DF93FD
:100D9000DC01EB018A016115710521F18C91882339
:100DA00009F141155105F1F08130B9F484EF91E07A
:100DB00020E931E0F9013197F1F70197D9F71C9259
:100DC00082E0F82EFA8281E00E946B06F8014181F0
:100DD000413029F44F838FE0888381E004C0FF8293
:100DE0001882FBCF83E0DF91CF911F910F91FF908D
:100DF000089580E00E94710E83E062E041E00E946D
:100E0000930E83E062E041E00E94200F83E062E005
:100E100040E00E94200F83E062E040E00E94930ED9
:100E200080E00E945C0E08950F931F93CF93DF9391
:100E3000FC01009711F483E05EC08181882301F5F5
:100E40000E94710E00E0C8ECD0E083E062E041E077
:100E50000E94930E83E062E041E00E94200F83E055
:100E600062E040E00E94200F83E062E040E00E94E8
:100E7000930ECE010197F1F70F5F033031F737C0C2
:100E8000813011F082E037C080E00E94710E83E073
:100E900062E041E00E94930E83E062E041E00E9444
:100EA000200F83E062E040E00E94200F83E062E0D8
:100EB00040E00E94930E08EC10E0C8010197F1F7A2
:100EC00083E062E041E00E94930E83E062E041E053
:100ED0000E94200F83E062E040E00E94200F83E048
:100EE00062E040E00E94930EC8010197F1F780E0B4
:100EF0000E945C0E81E0DF91CF911F910F910895C8
:100F00001F93CF93DF93EC01009711F483E01FC090
:100F100081E00E94030D8981813011F01FE001C042
:100F200010E0812F68810E94400D80E20E94800CB9
:100F30008881882319F481E0888301C01882812F79
:100F400068810E94400D8CE70E94800C81E0DF9157
:100F5000CF911F910895FC01009711F483E008954B
:100F60008181823011F48FE003C0813021F480E070
:100F700060810E94400D8CE70E94800C81E0089502
:100F80004F925F926F927F928F929F92AF92BF9299
:100F9000CF92DF92EF92FF920F931F93CF93DF9345
:100FA000EC013B01009709F4FCC06115710509F4DF
:100FB000F8C08A81813009F0F2C08F81813009F058
:100FC00071C08824FB018181823011F088248394D0
:100FD000988040E9442E41E0542E5AC088816981AE
:100FE0000E94400D80E20E94800C892D837039F4AC
:100FF0000E94661162E070E00E947A1089839882F4
:10100000892D69810E94400D8AE20E94800C6B81CB
:101010007C818D819E810E94FD035B016C0120E03B
:1010200030E04AE755E40E941F027B018C0120E07A
:1010300030E040E85FE30E94790388231CF461E01C
:1010400070E022C0C801B70120E03FEF4FE757E44E
:101050000E9419031816A4F4C601B50120E030E07F
:1010600040E251E40E941F020E94490005C0C201F3
:101070000197F1F76150704061157105C1F707C024
:10108000C801B7010E944900CB010197F1F79A947A
:1010900098140CF0A3CFF3016181623009F083C092
:1010A0006A8375C0823009F07AC0FB018181823089
:1010B00019F03FE0832E02C02EE0822E988090E946
:1010C000492E91E0592E5AC0888169810E94400DB5
:1010D00080E20E94800C892D837039F40E94661191
:1010E00062E070E00E947A1089839882892D69817C
:1010F0000E94400D8AE20E94800C6B817C818D8170
:101100009E810E94FD035B016C0120E030E04AE714
:1011100055E40E941F027B018C0120E030E040E892
:101120005FE30E94790388231CF461E070E022C031
:10113000C801B70120E03FEF4FE757E40E941903D1
:101140001816A4F4C601B50120E030E040E251E4F5
:101150000E941F020E94490005C0C2010197F1F7D9
:101160006150704061157105C1F707C0C801B70132
:101170000E944900CB010197F1F7939489140CF078
:10118000A3CFF3018181813071F482E08A83888169
:1011900069810E94400D80E20E94800C04C082E0C0
:1011A00003C083E001C081E0DF91CF911F910F91D7
:1011B000FF90EF90DF90CF90BF90AF909F908F9077
:1011C0007F906F905F904F900895CF93DF93FC01D5
:1011D000DB01EA010097C1F061157105A9F09C914E
:1011E0008181981771F48781823011F481E001C008
:1011F00082E08783CF01BD010E94C00781E0888320
:1012000004C0188281E001C083E0DF91CF9108958E
:10121000EF92FF920F931F93DF93CF930F92CDB76F
:10122000DEB78C017B010097A9F16115710591F181
:1012300019820E94C007813059F5C801B701AE017B
:101240004F5F5F4F0E94E508813011F58981813041
:10125000A9F4C8010E941407F80183819481A58133
:10126000B68189319105A105B10591F04997A10990
:10127000B10983839483A583B6830AC0882341F48C
:1012800082E0F80182830E94F90680E00E946B06EA
:1012900081E001C083E00F90CF91DF911F910F910A
:1012A000FF90EF900895AF92BF92CF92DF92EF92AE
:1012B000FF920F931F93CF93DF93EC01142F0097AE
:1012C00011F483E0B8C080E090E02BE0660F771F58
:1012D000881F991F2A95D1F728E631E040E050E0B9
:1012E0000E948D105901113009F052C0EE24FF24E4
:1012F00090EEC92E9EE2D92E46C087010370107071
:101300000115110529F488816B8141E00E94200FAD
:1013100088816C8140E00E94200FC6010197F1F79F
:101320000130110529F488816A8141E00E94200F73
:1013300088816B8140E00E94200FC6010197F1F780
:101340000230110529F48881698141E00E94200F53
:1013500088816A8140E00E94200FC6010197F1F761
:101360000330110529F488816C8141E00E94200F2F
:101370008881698140E00E94200FC6010197F1F742
:101380000894E11CF11CEA14FB0408F4B6CF3EC03B
:10139000112309F05BC000E010E080EEE82E8EE241
:1013A000F82E31C0C80183709070009741F4888195
:1013B0006C8141E00E94200F888169811CC08130CE
:1013C000910541F48881698141E00E94200F888164
:1013D0006A8111C0029741F488816A8141E00E94CC
:1013E000200F88816B8107C088816B8141E00E945A
:1013F000200F88816C8140E00E94200FC701019777
:10140000F1F70F5F1F4F0A151B0560F28881698194
:1014100041E00E94200F88816A8141E00E94200FF4
:1014200088816B8141E00E94200F88816C8141E0BE
:101430000E94200F81E0DF91CF911F910F91FF90CB
:10144000EF90DF90CF90BF90AF90089582E0F3CF00
:10145000FF920F931F93DF93CF930F92CDB7DEB719
:101460008C01009711F483E01AC0FC01808188236D
:1014700011F082E014C0F80181816281FF24F394AD
:10148000F982AE014F5F5F4F0E94AD0F89818823C3
:1014900019F4F801F38202C0F801138281E00F9081
:1014A000CF91DF911F910F91FF900895FC0100975C
:1014B00011F483E008958081823021F48381648176
:1014C00040E005C0882339F48381648141E00E94B3
:1014D000200F81E00895813011F082E0089583812A
:1014E000648140E00E94200F81E00895FC01009794
:1014F00011F483E008958081823021F48381648136
:1015000041E005C0882339F48381648140E00E9472
:10151000200F81E00895813011F082E008958381E9
:10152000648141E00E94200F81E008950F931F9392
:10153000DF93CF930F92CDB7DEB7082F142FAE01F4
:101540004F5F5F4F0E94AD0F6981612B6983802FD0
:101550000E94990F0F90CF91DF911F910F910895E5
:10156000DC01009711F483E008958C918823B9F48D
:1015700012968C911297882339F4E62FF0E0EF55FC
:10158000FE4F4081469521C0813031F5E62FF0E0D5
:10159000EF55FE4F11968C9160E0408119C081306B
:1015A000D9F412968C911297882339F4E62FF0E043
:1015B000EF55FE4F4081469507C0813069F4E62F14
:1015C000F0E0EF55FE4F4081409511968C9167E019
:1015D0000E94960A81E0089582E00895FC018181CD
:1015E00062810E94F50F0895FC01009711F483E0D9
:1015F00008958081882339F48181628140E00E94CE
:10160000200F81E00895813011F082E008958181FA
:10161000628141E00E94200F81E00895FC01009763
:1016200011F483E008958081882339F481816281F7
:1016300041E00E94200F81E00895813011F082E0A6
:1016400008958181628140E00E94200F81E0089529
:101650007F928F929F92AF92BF92CF92DF92EF9242
:10166000FF920F931F93DF93CF9300D0CDB7DEB7D8
:101670005C014B0100E010E06E010894C11CD11C1C
:10168000702EF801E554FE4FE08083E06E2D40E0BF
:101690000E94200F44E0F42E81E064E0A6010E9445
:1016A000AD0F8981882321F490E0E0E0F0E029C0CB
:1016B00035E0F32E81E065E0A6010E94AD0F89813F
:1016C000882321F491E0E1E0F0E01BC026E0F22E57
:1016D00081E066E0A6010E94AD0F8981882321F494
:1016E00092E0E2E0F0E00DC097E0F92E81E067E0E3
:1016F000A6010E94AD0F89818823E1F493E0E3E025
:10170000F0E0EE0FFF1FEE0FFF1FE00FF11FE5559A
:10171000FE4F108107C081E06F2DA6019A830E94C1
:10172000AD0F9A8189818823B1F3F5019083F4018B
:1017300070820CC083E06E2D41E00E94200F0F5F8D
:101740001F4F0430110509F09BCF1FEF812F0F9021
:101750000F90CF91DF911F910F91FF90EF90DF904D
:10176000CF90BF90AF909F908F907F9008950F93F0
:101770001F938C01FC018081618140E00E94200F59
:10178000F8018081628140E00E94200F1F910F913B
:1017900008950F931F938C01FC018081628140E0CA
:1017A0000E94200FF8018081618141E00E94200F9A
:1017B0001F910F9108950F931F938C01FC0180815D
:1017C000618140E00E94200FF8018081628141E048
:1017D0000E94200F1F910F910895CF93DF93EC018A
:1017E000342F3695662311F4E42F02C0E42FEF5F07
:1017F0006E2F70E00FC0842F90E0DE01A80FB91F9C
:101800002C91FB01E81BF90BEC0FFD1F80818C93E1
:1018100020834150341778F3DF91CF9108958F9250
:101820009F92BF92CF92DF92EF92FF920F93DF933E
:10183000CF9300D0CDB7DEB76B017C014A016115B3
:1018400071058105910529F480E3FA0180831182F5
:101850004AC097FD03C000E0BB240EC08DE2FA0130
:101860008083F094E094D094C094C11CD11CE11CFE
:10187000F11C01E0BB24B394C401800F911D9A8335
:101880008983C701B6012AE030E040E050E00E94C1
:10189000AF10605DE981FA816083C701B6012AE07B
:1018A00030E040E050E00E94AF10C901DA016C0165
:1018B0007D010F5FC114D104E104F104E9F60131A7
:1018C00018F0F401108A04C0F401E00FF11D108239
:1018D000402F4150BB2019F4C40160E002C0C40194
:1018E00061E00E94ED0B0F900F90CF91DF910F916F
:1018F000FF90EF90DF90CF90BF909F908F900895D2
:101900001F93182F81E060E041E00E94200F80E0EB
:10191000612F0E94990F81E061E041E00E94200F59
:1019200080E49FE10197F1F781E061E040E00E94EF
:10193000200F1F9108951F93CF93DF93EC0110E0C8
:1019400003C00E94800C1F5FFE01E10FF11D80812A
:101950008823B9F7DF91CF911F9108950F931F93BB
:10196000DF93CF93CDB7DEB760970FB6F894DEBFA5
:101970000FBECDBF8E010F5F1F4FA8010E940F0C3D
:10198000C8010E949B0C60960FB6F894DEBF0FBE94
:10199000CDBFCF91DF911F910F910895CF92DF922C
:1019A000EF92FF920F931F93DF93CF93CDB7DEB7E4
:1019B00060970FB6F894DEBF0FBECDBF69017A0104
:1019C0008E010F5F1F4FA8010E940F0CC8010E94DB
:1019D0009B0C8EE20E94800CC701B601A8010E94F8
:1019E0000F0CC8010E949B0C60960FB6F894DEBFE6
:1019F0000FBECDBFCF91DF911F910F91FF90EF9060
:101A0000DF90CF9008951F93182F81E060E040E0B1
:101A10000E94200F80E0612F0E94990F81E061E019
:101A200041E00E94200F80E49FE10197F1F781E0FF
:101A300061E040E00E94200F1F9108950F931F93D3
:101A4000CF93DF938B016115710511F482E013C010
:101A5000880F880F880F80640E94030DC0E0D0E0DB
:101A6000F801EC0FFD1F80810E94800C2196C83088
:101A7000D105B1F781E0DF91CF911F910F910895CA
:101A80006295660F660F607C680F862F80680E94E3
:101A9000030D089580E991E020E931E0F9013197E3
:101AA000F1F70197D9F788E30E94030D8CE00E94BB
:101AB000030D81E00E94030D089578940895F89431
:101AC00008956115710511F483E00895833010F0D5
:101AD00082E00895E82FF0E0EE0FFF1FE054FE4F84
:101AE0007183608381E008951F920F920FB60F9269
:101AF00011242F933F934F935F936F937F938F9313
:101B00009F93AF93BF93EF93FF93E091C001F09148
:101B1000C101309709F00995FF91EF91BF91AF9105
:101B20009F918F917F916F915F914F913F912F91F5
:101B30000F900FBE0F901F9018951F920F920FB627
:101B40000F9211242F933F934F935F936F937F9343
:101B50008F939F93AF93BF93EF93FF93E091C20155
:101B6000F091C301309709F00995FF91EF91BF9172
:101B7000AF919F918F917F916F915F914F913F9125
:101B80002F910F900FBE0F901F9018951F920F92DC
:101B90000FB60F9211242F933F934F935F936F9340
:101BA0007F938F939F93AF93BF93EF93FF93E091B6
:101BB000C401F091C501309709F00995FF91EF91AB
:101BC000BF91AF919F918F917F916F915F914F9155
:101BD0003F912F910F900FBE0F901F90189585B7D2
:101BE000816085BF85B7826085BF85B7846085BF0A
:101BF00085B7886085BF84B78F7B84BF8BB78064CF
:101C00008BBF8BB780688BBF8BB780628BBF08950B
:101C1000882301F5623079F0633020F4613009F0F7
:101C200049C006C0633069F0643009F043C00CC09D
:101C300085B78E7F02C085B7816085BF85B78D7FF0
:101C40001CC085B78E7F02C085B7816085BF85B710
:101C5000826013C08130F9F4623089F0633018F487
:101C6000613041F505C0633069F0643019F50DC08D
:101C700085B78B7F85BF85B7877F85BF19C085B73F
:101C80008460F8CF85B78B7F02C085B7846085BF3D
:101C900085B78860F2CF823069F4633019F0643020
:101CA00049F403C084B78F7B02C084B7806484BFCB
:101CB00081E0089582E00895813049F0813020F07C
:101CC000823051F082E008958BB7806402C08BB7F8
:101CD00080688BBF81E008958BB780628BBF81E005
:101CE0000895813049F0813020F0823051F082E057
:101CF00008958BB78F7B02C08BB78F778BBF81E046
:101D000008958BB78F7D8BBF81E008958FEF8ABBDD
:101D100083E087BB81E084BB11BA1BBA84E088BB37
:101D200015BA12BA0895683008F074C04423D1F58A
:101D30008130A1F0813030F08230E1F0833009F061
:101D400069C024C02AB381E090E002C0880F991FC7
:101D50006A95E2F7809582238ABB5AC027B381E057
:101D600090E002C0880F991F6A95E2F78095822360
:101D700087BB4EC024B381E090E002C0880F991F5A
:101D80006A95E2F78095822384BB42C021B381E04B
:101D900090E002C0880F991F6A95E2F78095822330
:101DA00081BB36C04130B1F5813091F0813028F0EF
:101DB0008230C9F0833071F521C02AB381E090E010
:101DC00002C0880F991F6A95E2F7282B2ABB20C012
:101DD00027B381E090E002C0880F991F6A95E2F76F
:101DE000282B27BB15C024B381E090E002C0880FE8
:101DF000991F6A95E2F7282B24BB0AC021B381E022
:101E000090E002C0880F991F6A95E2F7282B21BB4A
:101E100081E0089582E00895813051F0813030F002
:101E2000823041F0833049F082E008956ABB03C0FC
:101E300067BB01C064BB81E0089561BB81E0089588
:101E4000683008F074C04423D1F58130A1F08130AE
:101E500030F08230E1F0833009F069C024C02BB348
:101E600081E090E002C0880F991F6A95E2F78095A3
:101E700082238BBB5AC028B381E090E002C0880F58
:101E8000991F6A95E2F78095822388BB4EC025B3DF
:101E900081E090E002C0880F991F6A95E2F7809573
:101EA000822385BB42C022B381E090E002C0880F4C
:101EB000991F6A95E2F78095822382BB36C0413034
:101EC000B1F5813091F0813028F08230C9F0833053
:101ED00071F521C02BB381E090E002C0880F991FFB
:101EE0006A95E2F7282B2BBB20C028B381E090E055
:101EF00002C0880F991F6A95E2F7282B28BB15C0EE
:101F000025B381E090E002C0880F991F6A95E2F73F
:101F1000282B25BB0AC022B381E090E002C0880FC5
:101F2000991F6A95E2F7282B22BB81E0089582E091
:101F30000895813051F0813030F0823041F08330AB
:101F400049F082E008956BBB03C068BB01C065BB6C
:101F500081E0089562BB81E00895FA0141155105C1
:101F600011F483E008956830D0F4813049F0813075
:101F700028F0823039F0833091F406C089B305C06F
:101F800086B303C083B301C080B390E002C09595CF
:101F900087956A95E2F78170808381E0089582E0F9
:101FA0000895FA014115510511F483E00895683050
:101FB000D0F4813049F0813028F0823039F083301C
:101FC00091F406C08AB305C087B303C084B301C0CF
:101FD00081B390E002C0959587956A95E2F781708C
:101FE000808381E0089582E008956830B0F5813003
:101FF00091F0813028F08230C9F0833071F521C032
:102000002BB381E090E002C0880F991F6A95E2F738
:1020100028272BBB20C028B381E090E002C0880FA6
:10202000991F6A95E2F7282728BB15C025B381E0E0
:1020300090E002C0880F991F6A95E2F7282725BB18
:102040000AC022B381E090E002C0880F991F6A9510
:10205000E2F7282722BB81E0089582E008950F93DC
:102060001F93182F062F40E00E94930E813029F411
:10207000812F602F41E00E94200F1F910F91089542
:102080000E94860E0E945D0D0E94EF0D0E944A0D77
:1020900080E06AE670E10E94610D82E065E670E131
:1020A0000E94610D87E991E00E94AB0789E991E008
:1020B00067E971E00E94080986EC91E069E971E046
:1020C00047E951E00E94C306F1CF87E991E00E9401
:1020D000800708958091C6018F5F8093C60183E0D9
:1020E00062E040E00E94930E83E062E040E00E94E4
:1020F000200F089597FB092E07260AD077FD04D0FC
:1021000049D006D000201AF4709561957F4F08954C
:10211000F6F7909581959F4F0895A1E21A2EAA1B7C
:10212000BB1BFD010DC0AA1FBB1FEE1FFF1FA21787
:10213000B307E407F50720F0A21BB30BE40BF50B84
:10214000661F771F881F991F1A9469F7609570950D
:10215000809590959B01AC01BD01CF01089597FB3F
:10216000092E05260ED057FD04D0D7DF0AD0001C5B
:1021700038F450954095309521953F4F4F4F5F4F24
:102180000895F6F790958095709561957F4F8F4FE4
:102190009F4F0895AA1BBB1B51E107C0AA1FBB1F7D
:1021A000A617B70710F0A61BB70B881F991F5A95E3
:1021B000A9F780959095BC01CD0108952F923F928B
:1021C0004F925F926F927F928F929F92AF92BF9247
:1021D000CF92DF92EF92FF920F931F93CF93DF93F3
:1021E000CDB7DEB7CA1BDB0B0FB6F894DEBF0FBE50
:1021F000CDBF09942A88398848885F846E847D849D
:102200008C849B84AA84B984C884DF80EE80FD809E
:102210000C811B81AA81B981CE0FD11D0FB6F89414
:10222000DEBF0FBECDBFED010895A0E0B0E0EBE151
:10223000F1E10C94E610EC01A880B980CA80DB8043
:10224000A114B104C104D10441F484E2A82E89EDA3
:10225000B82E8BE5C82E87E0D82EC601B5012DE13A
:1022600033EF41E050E00E94AF1027EA31E440E054
:1022700050E00E9476117B018C01C601B5012DE171
:1022800033EF41E050E00E94AF10CA01B9012CEEDB
:1022900034EF4FEF5FEF0E9476116E0D7F1D801FB0
:1022A000911F97FF04C06150704080409048688340
:1022B00079838A839B839B013F77C901CDB7DEB7C2
:1022C000EAE00C9402110E941511089583E991E04F
:1022D0000E9415110895A0E0B0E0809393019093BF
:1022E0009401A0939501B09396010895629FD00147
:1022F000739FF001829FE00DF11D649FE00DF11DC1
:10230000929FF00D839FF00D749FF00D659FF00D6F
:102310009927729FB00DE11DF91F639FB00DE11D5C
:0E232000F91FBD01CF0111240895F894FFCFDD
:10232E00202067616D65206F766572202E2E2E003F
:10233E0020796F75206C6F7373205F2D5F0020798D
:10234E006F752077696E202A5F2A0000000000005A
:10235E00000000000102020303030304040404044A
:10236E000404040505050505050505050505050512
:10237E0005050506060606060606060606060606F2
:10238E0006060606060606060606060606060606DF
:10239E0006060607070707070707070707070707C2
:1023AE0007070707070707070707070707070707AF
:1023BE00070707070707070707070707070707079F
:1023CE00070707070707070707070707070707078F
:1023DE000707070808080808080808080808080872
:1023EE00080808080808080808080808080808085F
:1023FE00080808080808080808080808080808084F
:10240E00080808080808080808080808080808083E
:10241E00080808080808080808080808080808082E
:10242E00080808080808080808080808080808081E
:10243E00080808080808080808080808080808080E
:10244E0008080808080808080808080808080808FE
:10245E000808080100000001010301014B00000003
:10246E00017E0CB69ECCDAFA0EFEDE0708092F04AA
:10247E0005062A0102032D73006F2B0203040500CB
:00000001FF
